:020000040800F2
:1000000000500020896E0008E1150008E315000883
:10001000E7150008E9150008EB15000800000000CE
:10002000000000000000000000000000814A0008FD
:10003000ED15000800000000214B0008654B00088A
:10004000D16E0008D16E0008D16E0008D16E000894
:10005000D16E0008D16E0008D16E0008D16E000884
:10006000D16E0008F1150008291600086116000875
:10007000D16E0008D16E0008D16E0008D16E000864
:10008000D16E0008D16E0008D16E0008D16E000854
:10009000D16E0008D16E0008D16E0008D16E000844
:1000A000D16E0008D16E0008D16E0008D16E000834
:1000B000D16E0008D16E000871160008D16E0008DC
:1000C000D16E0008D16E0008D16E0008D16E000814
:1000D000D16E0008D16E0008D16E0008D16E000804
:1000E00081160008D16E0008D16E000800000000E3
:1000F0000000000000000000000000000000000000
:0C01000000000000000000005FF808F1A3
:1001100010B5054C237833B9044B13B10448AFF341
:1001200000800123237010BDF800002000000000B3
:100130004C78000808B5034B1BB103490348AFF3E3
:10014000008008BD00000000FC0000204C78000882
:10015000034613F8012B002AFBD1181A0138704707
:1001600081F0004102E000BF83F0004330B54FEA68
:1001700041044FEA430594EA050F08BF90EA020FD5
:100180001FBF54EA000C55EA020C7FEA645C7FEA68
:10019000655C00F0E2804FEA5454D4EB5555B8BF8B
:1001A0006D420CDD2C4480EA020281EA030382EAFC
:1001B000000083EA010180EA020281EA0303362D8E
:1001C00088BF30BD11F0004F4FEA01314FF4801C61
:1001D0004CEA113102D0404261EB410113F0004F73
:1001E0004FEA03334CEA133302D0524263EB43032A
:1001F00094EA050F00F0A780A4F10104D5F1200EC8
:100200000DDB02FA0EFC22FA05F2801841F1000122
:1002100003FA0EF2801843FA05F359410EE0A5F1F6
:1002200020050EF1200E012A03FA0EFC28BF4CF027
:10023000020C43FA05F3C01851EBE37101F00045DD
:1002400007D54FF0000EDCF1000C7EEB00006EEBEA
:100250000101B1F5801F1BD3B1F5001F0CD3490874
:100260005FEA30004FEA3C0C04F101044FEA4452CB
:1002700012F5800F80F09A80BCF1004F08BF5FEA52
:10028000500C50F1000041EB045141EA050130BD32
:100290005FEA4C0C404141EB0101013C28BFB1F544
:1002A000801FE9D291F0000F04BF01460020B1FA8F
:1002B00081F308BF2033A3F10B03B3F120020CDA62
:1002C0000C3208DD02F1140CC2F10C0201FA0CF040
:1002D00021FA02F10CE002F11402D8BFC2F1200CA5
:1002E00001FA02F120FA0CFCDCBF41EA0C0190405B
:1002F000E41AA2BF01EB0451294330BD6FEA0404A4
:100300001F3C1CDA0C340EDC04F11404C4F120028E
:1003100020FA04F001FA02F340EA030021FA04F3A0
:1003200045EA030130BDC4F10C04C4F1200220FAF7
:1003300002F001FA04F340EA0300294630BD21FA35
:1003400004F0294630BD94F0000F83F4801306BFFB
:1003500081F480110134013D4EE77FEA645C18BFEF
:100360007FEA655C29D094EA050F08BF90EA020F86
:1003700005D054EA000C04BF1946104630BD91EA7E
:10038000030F1EBF0021002030BD5FEA545C05D181
:100390004000494128BF41F0004130BD14F58004C0
:1003A0003CBF01F5801130BD01F0004545F0FE4134
:1003B00041F470014FF0000030BD7FEA645C1ABF69
:1003C000194610467FEA655C1CBF0B46024650EAA0
:1003D000013406BF52EA033591EA030F41F40021CC
:1003E00030BD00BF90F0000F04BF0021704730B552
:1003F0004FF4806404F132044FF000054FF0000127
:1004000050E700BF90F0000F04BF0021704730B5E7
:100410004FF4806404F1320410F0004548BF4042BC
:100420004FF000013EE700BF42004FEAE2014FEA11
:1004300031014FEA02701FBF12F07F4393F07F4FEC
:1004400081F06051704732F07F4208BF704793F0EF
:100450007F4F04BF41F40021704730B54FF4607402
:1004600001F0004521F000411CE700BF50EA010205
:1004700008BF704730B54FF000050AE050EA0102AE
:1004800008BF704730B511F0004502D5404261EB1E
:1004900041014FF4806404F132045FEA915C3FF45F
:1004A000D8AE4FF003025FEADC0C18BF03325FEAFC
:1004B000DC0C18BF033202EBDC02C2F1200300FAAD
:1004C00003FC20FA02F001FA03FE40EA0E0021FAD2
:1004D00002F11444BDE600BF70B54FF0FF0C4CF4C0
:1004E000E06C1CEA11541DBF1CEA135594EA0C0F72
:1004F00095EA0C0F00F0DEF82C4481EA030621EAAD
:100500004C5123EA4C5350EA013518BF52EA0335E7
:1005100041F4801143F4801338D0A0FB02CE4FF099
:100520000005E1FB02E506F00042E0FB03E54FF0C9
:100530000006E1FB03569CF0000F18BF4EF0010EC1
:10054000A4F1FF04B6F5007F64F5407404D25FEABD
:100550004E0E6D4146EB060642EAC62141EA555170
:100560004FEAC52040EA5E504FEACE2EB4F1FD0CB2
:1005700088BFBCF5E06F1ED8BEF1004F08BF5FEA30
:10058000500E50F1000041EB045170BD06F00046E2
:1005900046EA010140EA020081EA0301B4EB5C048F
:1005A000C2BFD4EB0C0541EA045170BD41F4801187
:1005B0004FF0000E013C00F3AB8014F1360FDEBFAC
:1005C000002001F0004170BDC4F10004203C35DA88
:1005D0000C341BDC04F11404C4F1200500FA05F30B
:1005E00020FA04F001FA05F240EA020001F00042AC
:1005F00021F0004110EBD37021FA04F642EB060122
:100600005EEA430E08BF20EAD37070BDC4F10C044B
:10061000C4F1200500FA04F320FA05F001FA04F20F
:1006200040EA020001F0004110EBD37041F10001FB
:100630005EEA430E08BF20EAD37070BDC4F1200506
:1006400000FA05F24EEA020E20FA04F301FA05F26E
:1006500043EA020321FA04F001F0004121FA04F216
:1006600020EA020000EBD3705EEA430E08BF20EAE6
:10067000D37070BD94F0000F0FD101F00046400020
:1006800041EB010111F4801F08BF013CF7D041EAA2
:10069000060195F0000F18BF704703F000465200A6
:1006A00043EB030313F4801F08BF013DF7D043EA77
:1006B0000603704794EA0C0F0CEA135518BF95EA2D
:1006C0000C0F0CD050EA410618BF52EA4306D1D1B4
:1006D00081EA030101F000414FF0000070BD50EAD3
:1006E000410606BF1046194652EA430619D094EA5D
:1006F0000C0F02D150EA013613D195EA0C0F05D147
:1007000052EA03361CBF104619460AD181EA03019A
:1007100001F0004141F0FE4141F470014FF0000052
:1007200070BD41F0FE4141F4780170BD70B54FF0ED
:10073000FF0C4CF4E06C1CEA11541DBF1CEA13556D
:1007400094EA0C0F95EA0C0F00F0A7F8A4EB05044F
:1007500081EA030E52EA03354FEA013100F0888046
:100760004FEA03334FF0805545EA131343EA12630F
:100770004FEA022245EA111545EA10654FEA0026C4
:100780000EF000419D4208BF964244F1FD0404F57D
:10079000407402D25B084FEA3202B61A65EB0305D9
:1007A0005B084FEA32024FF480104FF4002CB6EB96
:1007B000020E75EB030E22BFB61A754640EA0C0016
:1007C0005B084FEA3202B6EB020E75EB030E22BF56
:1007D000B61A754640EA5C005B084FEA3202B6EB97
:1007E000020E75EB030E22BFB61A754640EA9C0056
:1007F0005B084FEA3202B6EB020E75EB030E22BF26
:10080000B61A754640EADC0055EA060E18D04FEAE3
:10081000051545EA16754FEA06164FEAC30343EA83
:1008200052734FEAC2025FEA1C1CC0D111F4801F50
:100830000BD141EA00014FF000004FF0004CB6E749
:1008400011F4801F04BF01430020B4F1FD0C88BFE8
:10085000BCF5E06F3FF6AFAEB5EB030C04BFB6EBF3
:10086000020C5FEA500C50F1000041EB045170BDE6
:100870000EF0004E4EEA113114EB5C04C2BFD4EB13
:100880000C0541EA045170BD41F480114FF0000E97
:10089000013C90E645EA060E8DE60CEA135594EA13
:1008A0000C0F08BF95EA0C0F3FF43BAF94EA0C0F16
:1008B0000AD150EA01347FF434AF95EA0C0F7FF48B
:1008C00025AF104619462CE795EA0C0F06D152EADF
:1008D00003353FF4FDAE1046194622E750EA4106C3
:1008E00018BF52EA43067FF4C5AE50EA41047FF4D4
:1008F0000DAF52EA43057FF4EBAE12E74FEA410237
:1009000012F5001215D211D56FF47873B3EB625261
:1009100012D94FEAC12343F0004343EA505311F088
:10092000004F23FA02F018BF404270474FF000001A
:10093000704750EA013005D111F0004008BF6FF058
:10094000004070474FF00000704700BF4FEA41027F
:10095000B2F1E04324BFB3F5001CDCF1FE5C0DD91D
:1009600001F0004C4FEAC0024CEA5070B2F1004F67
:1009700040EB830008BF20F00100704711F0804F6A
:1009800021D113F13872BCBF01F00040704741F42F
:1009900080114FEA5252C2F11802C2F1200C10FA33
:1009A0000CF320FA02F018BF40F001004FEAC12317
:1009B0004FEAD32303FA0CFC40EA0C0023FA02F3BB
:1009C0004FEA4303CCE77FEA625307D150EA013391
:1009D0001EBF4FF0FE4040F44000704701F0004061
:1009E00040F0FE4040F40000704700BF80F000403F
:1009F00002E000BF81F0004142001FBF5FEA4103F7
:100A000092EA030F7FEA226C7FEA236C6AD04FEAF6
:100A10001262D2EB1363C1BFD2184140484041403B
:100A2000B8BF5B42192B88BF704710F0004F40F4ED
:100A3000000020F07F4018BF404211F0004F41F409
:100A4000000121F07F4118BF494292EA030F3FD0D5
:100A5000A2F1010241FA03FC10EB0C00C3F12003E8
:100A600001FA03F100F0004302D5494260EB400077
:100A7000B0F5000F13D3B0F1807F06D340084FEAE2
:100A8000310102F10102FE2A51D2B1F1004F40EBD7
:100A9000C25008BF20F0010040EA0300704749003F
:100AA00040EB0000013A28BFB0F5000FEDD2B0FADC
:100AB00080FCACF1080CB2EB0C0200FA0CF0AABFFF
:100AC00000EBC25052421843BCBFD040184370479D
:100AD00092F0000F81F4000106BF80F400000132A3
:100AE000013BB5E74FEA41037FEA226C18BF7FEA7A
:100AF000236C21D092EA030F04D092F0000F08BFBC
:100B00000846704790EA010F1CBF0020704712F0A2
:100B10007F4F04D1400028BF40F00040704712F1E1
:100B200000723CBF00F50000704700F0004343F046
:100B3000FE4040F4000070477FEA226216BF08467C
:100B40007FEA23630146420206BF5FEA412390EA3F
:100B5000010F40F4800070474FF0000304E000BF35
:100B600010F0004348BF40425FEA000C08BF7047E6
:100B700043F0964301464FF000001CE050EA0102AA
:100B800008BF70474FF000030AE000BF50EA0102BF
:100B900008BF704711F0004302D5404261EB4101AC
:100BA0005FEA010C02BF84460146002043F0B643D1
:100BB00008BFA3F18053A3F50003BCFA8CF2083AF6
:100BC000A3EBC25310DB01FA02FC634400FA02FCFF
:100BD000C2F12002BCF1004F20FA02F243EB020006
:100BE00008BF20F00100704702F1200201FA02FC68
:100BF000C2F1200250EA4C0021FA02F243EB02005B
:100C000008BF20EADC7070474FF0FF0C1CEAD0529E
:100C10001EBF1CEAD15392EA0C0F93EA0C0F6FD05F
:100C20001A4480EA010C400218BF5FEA41211ED03D
:100C30004FF0006343EA501043EA5111A0FB013129
:100C40000CF00040B1F5000F3EBF490041EAD371FE
:100C50005B0040EA010062F17F02FD2A1DD8B3F17A
:100C6000004F40EBC25008BF20F00100704790F0E9
:100C7000000F0CF0004C08BF49024CEA502040EA3B
:100C800051207F3AC2BFD2F1FF0340EAC250704701
:100C900040F400004FF00003013A5DDC12F1190F3F
:100CA000DCBF00F000407047C2F10002410021FAB1
:100CB00002F1C2F1200200FA02FC5FEA310040F1C9
:100CC000000053EA4C0308BF20EADC70704792F042
:100CD000000F00F0004C02BF400010F4000F013A7A
:100CE000F9D040EA0C0093F0000F01F0004C02BF75
:100CF000490011F4000F013BF9D041EA0C018FE7E4
:100D00000CEAD15392EA0C0F18BF93EA0C0F0AD0E9
:100D100030F0004C18BF31F0004CD8D180EA01000F
:100D200000F00040704790F0000F17BF90F0004FA8
:100D3000084691F0000F91F0004F14D092EA0C0F8A
:100D400001D142020FD193EA0C0F03D14B0218BF1D
:100D5000084608D180EA010000F0004040F0FE4063
:100D600040F40000704740F0FE4040F440007047FF
:100D70004FF0FF0C1CEAD0521EBF1CEAD15392EA7E
:100D80000C0F93EA0C0F69D0A2EB030280EA010C6E
:100D900049024FEA402037D04FF0805343EA111107
:100DA00043EA10130CF000408B4238BF5B0042F165
:100DB0007D024FF4000C8B4224BF5B1A40EA0C000A
:100DC000B3EB510F24BFA3EB510340EA5C00B3EB3C
:100DD000910F24BFA3EB910340EA9C00B3EBD10F2A
:100DE00024BFA3EBD10340EADC001B0118BF5FEA7C
:100DF0001C1CE0D1FD2A3FF650AF8B4240EBC250A5
:100E000008BF20F0010070470CF0004C4CEA502065
:100E10007F32C2BFD2F1FF0340EAC250704740F4B4
:100E200000004FF00003013A37E792F0000F00F0A6
:100E3000004C02BF400010F4000F013AF9D040EA24
:100E40000C0093F0000F01F0004C02BF490011F4B8
:100E5000000F013BF9D041EA0C0195E70CEAD153B0
:100E600092EA0C0F08D142027FF47DAF93EA0C0F97
:100E70007FF470AF084676E793EA0C0F04D14B027B
:100E80003FF44CAF08466EE730F0004C18BF31F02D
:100E9000004CCAD130F000427FF45CAF31F0004327
:100EA0007FF43CAF5FE700BF4FF0FF3C06E000BFC0
:100EB0004FF0010C02E000BF4FF0010C4DF804CDE3
:100EC0004FEA40024FEA41037FEA226C18BF7FEAF3
:100ED000236C11D001B052EA530C18BF90EA010FF5
:100EE00058BFB2EB030088BFC81738BF6FEAE17084
:100EF00018BF40F0010070477FEA226C02D15FEA20
:100F0000402C05D17FEA236CE4D15FEA412CE1D08B
:100F10005DF8040B704700BF844608466146FFE752
:100F20000FB5FFF7C9FF002848BF10F1000F0FBD34
:100F30004DF808EDFFF7F4FF0CBF012000205DF82D
:100F400008FB00BF4DF808EDFFF7EAFF34BF0120B2
:100F500000205DF808FB00BF4DF808EDFFF7E0FF4B
:100F600094BF012000205DF808FB00BF4DF808ED9C
:100F7000FFF7D2FF94BF012000205DF808FB00BFFF
:100F80004DF808EDFFF7C8FF34BF012000205DF8E1
:100F900008FB00BF4FEA4002B2F1FE4F0FD34FF003
:100FA0009E03B3EB12620DD94FEA002343F00043D6
:100FB00010F0004F23FA02F018BF404270474FF084
:100FC0000000704712F1610F01D1420205D110F00B
:100FD000004008BF6FF0004070474FF000007047BE
:100FE00042000ED2B2F1FE4F0BD34FF09E03B3EB93
:100FF000126209D44FEA002343F0004323FA02F0BF
:1010000070474FF00000704712F1610F01D14202AA
:1010100002D14FF0FF3070474FF00000704700BF23
:1010200008B50268034B9A4200D008BD01F03EF8B3
:10103000FBE700BF0008004072B6FEE700B595B0C0
:10104000282200210DEB020005F08CFF0023059300
:1010500006930793089309930193029303930493D0
:1010600001220A924FF480330B930E9202221192C6
:1010700012934FF4E01313930AA801F053F8C8B980
:101080000F23059302210691002307934FF48062FA
:101090000892099305A801F077FA68B90223019331
:1010A0004FF40043039301A801F068FB30B915B079
:1010B0005DF804FBFFF7C0FFFFF7BEFFFFF7BCFFC3
:1010C00008B500F0E1FFFFF7B9FF00F011F800F0FC
:1010D000B7F900F0CDF800F0CDF900F025FA04F0F2
:1010E000C5FD04F0D7FD00F0ABF803F021FBFEE7EF
:1010F000F0B589B000240494059406940794424BFB
:101100009A6942F010029A619A6902F01002009204
:10111000009A9A6942F020029A619A6902F02002CC
:101120000192019A9A6942F004029A619A6902F066
:1011300004020292029A9A6942F008029A619B693B
:1011400003F008030393039B304F22464FF40051F2
:10115000384601F024FD2E4E22461021304601F083
:101160001EFD01224FF48061304601F018FD4FF45E
:1011700000530493012505950695079504A9384663
:1011800001F0F4FB4FF48263049305950694032366
:10119000079304A9304601F0E9FB43F218030493D6
:1011A0001C4B0593069504A91B4801F0DFFB4FF487
:1011B000007304930594069504A9304601F0D6FB0C
:1011C0004FF4C053049305940223069304A93046B8
:1011D00001F0CCFB22460F21092001F03BFE092043
:1011E00001F070FE22460F210A2001F033FE0A2092
:1011F00001F068FE22460F21282001F02BFE282056
:1012000001F060FE09B0F0BD001002400010014086
:101210000008014000002110000C014008B5012029
:1012200003F0C0FAFBE70000034B0360034B0B60C5
:1012300080231360704700BF1803002018010020AE
:1012400010B588B00DF1040C074C0FCCACE80F00C2
:1012500094E807008CE80700002101A803F06DFA6C
:10126000024B186008B010BD64780008140100201B
:1012700000B585B000230193029303933F48404A91
:1012800002604FF4807282600122027303754FF492
:101290006022C26143600823036100F0F1FD002871
:1012A00051D100230193012302930623039301A943
:1012B000324800F03BFC002848D10123019302236F
:1012C000029301A92D4800F031FC002841D10223EE
:1012D00001930323029301A9284800F027FC00286A
:1012E0003AD103230193042302930DEB0301234816
:1012F00000F01CFC002832D108230193052302933F
:1013000001A91E4800F012FC60BB092301930623CB
:10131000029301A9194800F009FC30BB1023019386
:101320000723029301A9154800F000FC00BB11231C
:1013300001930823029301A9104800F0F7FBD0B9EC
:1013400005B05DF804FBFFF777FEAAE7FFF774FE30
:10135000B3E7FFF771FEBAE7FFF76EFEC1E7FFF7ED
:101360006BFEC9E7FFF768FECFE7FFF765FED5E73D
:10137000FFF762FEDBE7FFF75FFEE1E76C030020AB
:101380000024014030B589B00023049305930693EF
:1013900007930268254B9A4201D009B030BD04463C
:1013A00003F56C439A6942F400729A619A6902F4F7
:1013B00000720192019A9A6942F004029A619A6954
:1013C00002F004020292029A9A6942F008029A61BB
:1013D0009B6903F008030393039B0F2304930325E6
:1013E000059504A9124801F0C1FA0495059504A9D0
:1013F000104801F0BBFA1048104B03600023436013
:1014000083608022C2604FF4807202614FF4806278
:10141000426120228261C36101F0F6FB18B9064BDC
:1014200023625C62B9E7FFF707FEF8E7002401409A
:1014300000080140000C01409C030020080002400D
:1014400000B583B00A4B5A6942F001025A615B69E8
:1014500003F001030193019B002205210B2001F001
:10146000F9FC0B2001F02EFD03B05DF804FB00BF7A
:101470000010024008B50B480B4B03600B4B436058
:1014800000238360C3604FF4804202614361836143
:10149000C361036201F0B6FF00B908BDFFF7CCFDE0
:1014A000FBE700BFE003002000540040801A060064
:1014B00010B586B00023029303930493059302684A
:1014C000154B9A4201D006B010BD144CA36943F0ED
:1014D0000803A361A36903F008030093009B4FF482
:1014E00040730293122303930323059302A90C482C
:1014F00001F03CFA0B4A536843F0E06343F0020307
:101500005360E36943F40013E361E36903F40013F8
:101510000193019BD7E700BF005400400010024038
:10152000000C01400000014008B50E480E4B03605E
:101530004FF48273436000238360C360036143619F
:101540004FF4007282611022C261036243628362BF
:101550000A23C36202F0B6F900B908BDFFF76CFDBB
:10156000FBE700BF340400200030014010B586B016
:10157000002302930393049305930268164B9A4247
:1015800001D006B010BD03F560439A6942F4805261
:101590009A619A6902F480520092009A9A6942F024
:1015A00004029A619B6903F004030193019BA02349
:1015B00002930223039303230593084C02A92046B8
:1015C00001F0D4F94023029300230393049302A96A
:1015D000204601F0CBF9D4E700300140000801407B
:1015E000FEE77047FEE7FEE7FEE7FEE77047000014
:1015F00008B500F067FD094B1860094B1B68C31A5A
:10160000C82B04D9074A137843F002031370044B24
:101610001860082001F0D4FA08BD00BFA80400201B
:10162000980400208C17002008B500F04BFD094BF2
:101630001860094B1B68C31AC82B04D9074A1378D2
:1016400043F001031370044B1860102001F0B8FA46
:1016500008BD00BFA4040020940400208C170020C3
:1016600008B5024801F042FB08BD00BF9C03002002
:1016700008B5024800F0FCF808BD00BFAC0400202B
:1016800008B54FF400511A4801F082FA70B14FF4D6
:101690008051174801F07CFAC8B14FF4805001F036
:1016A0008FFA4FF4005001F08BFA08BD00F00AFDEC
:1016B000104B1860104B1B68C31AC82B04D90F4A73
:1016C000137843F0040313700B4B1860DFE700F04E
:1016D000F9FC0B4B18600B4B1B68C31AC82B04D9C1
:1016E000064A137843F008031370064B1860D4E7DA
:1016F000000C0140A0040020900400208C17002062
:101700009C0400208C04002000B583B0114B9A6922
:1017100042F001029A619A6902F001020092009A75
:10172000DA6942F08052DA61DB6903F08053019399
:10173000019B00220F216FF0010001F08BFB064A94
:10174000536823F0E06343F00073536003B05DF827
:1017500004FB00BF001002400000014030B589B01A
:101760000446214BDA6942F00402DA61DB6903F0D6
:1017700004030193019B02A903A800F0E1FF069B6B
:10178000CBB900F0BDFF03461848A0FB03239B0C18
:10179000013B1748174A026040F2E732C2604360DB
:1017A000002303618360836100F054F9054630B182
:1017B000284609B030BD00F0A3FF4300E4E70C4821
:1017C00000F01EF805460028F2D11E2001F07AFB39
:1017D0000F2C01D90125EBE7002221461E2001F044
:1017E00039FB054B1C60E3E70010024083DE1B431E
:1017F000AC040020000800400400002070470000F6
:1018000090F83D30DBB2012B27D1022380F83D3028
:101810000268D36843F00103D3600368114A93421E
:1018200010D0B3F1804F0DD0A2F59432934209D07D
:1018300002F58062934205D01A6842F001021A60F4
:10184000002070479A6802F00702062A07D01A683B
:1018500042F001021A60002070470120704700200A
:10186000704700BF002C01407047704770477047B9
:1018700070B504460368DE681D6915F0020F10D0CC
:1018800016F0020F0DD06FF002021A6101230377E8
:1018900003689B6913F0030F5ED0FFF7E6FF002398
:1018A000237715F0040F12D016F0040F0FD0236821
:1018B0006FF004021A610223237723689B6913F4F3
:1018C000407F4FD02046FFF7D0FF0023237715F04D
:1018D000080F12D016F0080F0FD023686FF008021F
:1018E0001A61042323772368DB6913F0030F40D0C8
:1018F0002046FFF7BAFF0023237715F0100F12D010
:1019000016F0100F0FD023686FF010021A61082331
:1019100023772368DB6913F4407F31D02046FFF73B
:10192000A4FF0023237715F0010F02D016F0010F5A
:101930002DD115F0800F02D016F0800F2FD115F0A9
:10194000400F02D016F0400F31D115F0200F02D019
:1019500016F0200F33D170BDFFF786FF2046FFF74A
:1019600085FF9CE72046FFF77FFF2046FFF77EFFBD
:10197000ABE72046FFF778FF2046FFF777FFBAE78F
:101980002046FFF771FF2046FFF770FFC9E7236885
:101990006FF001021A612046FFF742FBC9E7236896
:1019A0006FF080021A61204600F081F8C7E72368D3
:1019B0006FF040021A612046FFF759FFC5E7236820
:1019C0006FF020021A61204600F070F8C3E70000B3
:1019D00003681F4A90420AD0B0F1804F07D0A2F5A9
:1019E0009432904203D002F58062904203D123F0FA
:1019F00070034A681343164A90420AD0B0F1804FF0
:101A000007D0A2F59432904203D002F58062904252
:101A100003D123F44073CA68134323F080034A6957
:101A2000134303608B68C3620B688362084B984260
:101A30000AD001234361036913F0010F03D0036946
:101A400023F00103036170470B690363F1E700BFF3
:101A5000002C014040B310B5044690F83D30F3B17E
:101A6000022384F83D30214651F8040BFFF7B0FF04
:101A7000012384F8463084F83E3084F83F3084F8FF
:101A8000403084F8413084F8423084F8433084F8A0
:101A9000443084F8453084F83D30002010BD80F893
:101AA0003C30FFF7ABFEDBE7012070477047704723
:101AB000704708B5436A9A6A12F0500F1ED19A6AAD
:101AC00042F400729A621A68926802F46022B2F5D7
:101AD000602F03D01846FFF7EBFF08BD1A7B002AE2
:101AE000F8D19A6A22F480729A629A6A12F4805F3C
:101AF000F0D19A6A42F001029A62EBE71B6A1B6B13
:101B00009847EAE7704708B5406AFFF7FBFF08BD52
:101B1000704708B5406A836A43F040038362C36A32
:101B200043F00403C362FFF7F3FF08BD30B482B093
:101B30000022019290F82420012A00F091800346AF
:101B4000012280F824204A68062A2DD80468606B98
:101B500002EB8202053A4FF01F0C0CFA02FC20EA5D
:101B60000C000D6805FA02F2024362630A68092A52
:101B70003AD91C68E06802EB42021E3A4FF0070CAB
:101B80000CFA02FC20EA0C008D6805FA02F202430E
:101B9000E2600A68103A012A36D90020002283F850
:101BA000242002B030BC70470C2A0ED80568286B80
:101BB00002EB8202233A1F24944020EA04000C68BE
:101BC00004FA02F202432A63D0E70568E86A02EBEE
:101BD0008202413A1F24944020EA04000C6804FA6F
:101BE00002F20243EA62C1E71C68206902EB42028A
:101BF0004FF0070C0CFA02FC20EA0C008D6805FA85
:101C000002F202432261C4E71A681648824205D0F4
:101C10009A6A42F020029A620120BFE7906810F4AD
:101C2000000F1BD1906840F4000090600A68102AF1
:101C300001D00020B2E70C4A12680C49A1FB021245
:101C4000920C02EB82025200019202E0019A013AE8
:101C50000192019A002AF9D100209FE700209DE718
:101C600002209EE7002401400800002083DE1B4381
:101C700030B583B00023019303689A6812F0010F16
:101C800033D104469A6842F001029A60184B1B68EF
:101C9000184AA2FB03239B0C019302E0019B013B2A
:101CA0000193019B002BF9D100F00CFA0546236843
:101CB0009B6813F0010F16D100F004FA431B022BAE
:101CC000F5D923689B6813F0010FF0D1A36A43F0A4
:101CD0001003A362E36A43F00103E362002384F884
:101CE0002430012002E0002000E0002003B030BDDD
:101CF0000800002083DE1B43F8B504460D46164657
:101D000001684448814259D0434B994256D094F8D7
:101D10002430012B7CD0012384F824302046FFF7A7
:101D2000A7FF074600286ED1A16A21F4706121F057
:101D3000010141F48071A1622268374B9A4244D07C
:101D4000A36A23F48013A362536813F4806F05D051
:101D5000A36A23F4405343F48053A362A36A13F4A9
:101D6000805F48D0E36A23F00603E362002384F82F
:101D70002430236A294A9A62236A294ADA62236A4A
:101D8000284A1A6323686FF002021A602268936877
:101D900043F480739360216833462A464C31206AAD
:101DA00000F068FF23689A6802F46022B2F5602FA1
:101DB00024D09A6842F480129A6027E0154B5B6841
:101DC00013F4702FA3D0012720E0A3F580635B6894
:101DD00013F4702FB4D0A36A43F48013A3620D4BA5
:101DE0005B6813F4806FB9D0A36A23F4405343F4C3
:101DF0008053A362B2E70023E362B7E79A6842F434
:101E0000A0029A6002E0002384F824303846F8BD2E
:101E10000227FBE70024014000280140B31A000814
:101E2000071B0008131B000838B503689A6812F0F6
:101E3000010F01D1002038BD04469A6822F001024A
:101E40009A6000F03FF9054623689B6813F0010F84
:101E500013D000F037F9431B022BF5D923689B6898
:101E600013F0010FF0D0A36A43F01003A362E36AFA
:101E700043F00103E3620120DDE70020DBE700001F
:101E800000287BD070B50446836A002B4DD02046D5
:101E9000FFF7CAFFA36A13F0100369D1002867D1C6
:101EA000A26A22F4885222F0020242F00202A262E6
:101EB0006268E1690A43217B42EA4102A568B5F5FF
:101EC000807F02D0012D36D01D46267D012E35D0D3
:101ED0002668716821F46941294371602568AE68FC
:101EE000274931401143A960A168B1F5807F01D035
:101EF000012902D12369013B1B052568E96A21F408
:101F000070010B43EB62236899681E4B0B409A42A9
:101F100025D0A36A23F0120343F01003A362E36AFF
:101F200043F00103E362012027E0C36280F824301C
:101F3000FFF728FAABE74FF48075C6E731B9A1691E
:101F4000013945EA413141F40065C1E7A16A41F038
:101F50002001A162E16A41F00101E162B8E70023DA
:101F6000E362A36A23F0030343F00103A36204E0E6
:101F7000A36A43F01003A362012070BD01207047E3
:101F8000FDF7E1FFFE0E1FFF70B582B00023019345
:101F900090F82430012B72D00446012380F82430BD
:101FA000FFF742FF2046FFF763FE054628B10023F6
:101FB00084F82430284602B070BDA36A23F4885305
:101FC00023F0020343F00203A3622E4B1E6802209B
:101FD00000F060FCB6FBF0F67600019602E0019B93
:101FE000013B0193019B002BF9D12268936843F0D8
:101FF0000803936000F066F8064623689A6812F0BA
:10200000080F14D000F05EF8801B0A28F5D9236869
:102010009B6813F0080FF0D0A36A23F0120343F07B
:102020001003A362002384F824300125C2E79A68D4
:1020300042F004029A6000F045F8064623689B6867
:1020400013F0040F14D000F03DF8801B0A28F5D9D6
:1020500023689B6813F0040FF0D0A36A23F01203E7
:1020600043F01003A362002384F824300125A1E784
:10207000A36A23F0030343F00103A36297E7022559
:1020800098E700BF0800002008B5074A136843F02E
:1020900010031360032000F0CBFE0C20FFF75EFB63
:1020A000FFF732FB002008BD00200240034A116800
:1020B000034B1B780B441360704700BFF4040020EF
:1020C00000000020014B1868704700BFF404002096
:1020D00038B50446FFF7F6FF0546B4F1FF3F02D0DE
:1020E000044B1B781C44FFF7EDFF401BA042FAD3C2
:1020F00038BD00BF0000002082B0084B1B68084AB2
:10210000A2FB03235B0A00FB03F3019300BF019BC7
:102110005A1E0192002BF9D102B07047080000202E
:10212000D34D6210002800F0F18170B582B00446F2
:10213000036813F0010F2CD0994B5B6803F00C037C
:10214000042B1DD0964B5B6803F00C03082B12D0B8
:102150006368B3F5803F41D0002B55D103F1804334
:1021600003F504331A6822F480321A601A6822F4E4
:1021700080221A6037E08A4B5B6813F4803FE7D017
:10218000874B1B6813F4003F03D06368002B00F0FB
:10219000BF81236813F0020F75D0814B5B6813F089
:1021A0000C0F5FD07E4B5B6803F00C03082B54D000
:1021B0002369002B00F08A807A4B01221A60FFF716
:1021C00081FF0546764B1B6813F0020F75D1FFF7B0
:1021D00079FF401B0228F5D903209EE1704A13685D
:1021E00043F480331360636843B3FFF76BFF054626
:1021F0006B4B1B6813F4003FCBD1FFF763FF401B11
:102200006428F5D9032088E1B3F5A02F09D0644BE9
:102210001A6822F480321A601A6822F480221A6046
:10222000E1E703F18043A3F53C331A6842F48022CE
:102230001A601A6842F480321A60D4E7FFF742FF4E
:102240000546574B1B6813F4003FA2D0FFF73AFF37
:10225000401B6428F5D903205FE1514B5B6813F400
:10226000803FA5D14E4B1B6813F0020F03D02369AA
:10227000012B40F04F814A4A136823F0F80361694B
:1022800043EAC1031360236813F0080F33D0A36936
:10229000002B5CD0434B0122C3F88024FFF712FFD0
:1022A00005463F4B5B6A13F0020F21D1FFF70AFF8F
:1022B000401B0228F5D903202FE1394A136823F087
:1022C000F803616943EAC1031360DCE7354B002280
:1022D0001A60FFF7F7FE0546314B1B6813F0020F3B
:1022E000D1D0FFF7EFFE401B0228F5D9032014E1FF
:1022F0000120FFF701FF236813F0040F00F0968020
:10230000274BDB6913F0805F34D1254BDA6942F04B
:102310008052DA61DB6903F080530193019B012550
:10232000214B1B6813F4807F26D0E368012B3DD03E
:10233000002B53D103F1804303F504331A6A22F0D2
:1023400001021A621A6A22F004021A6233E0154B83
:102350000022C3F88024FFF7B5FE0546104B5B6AE8
:1023600013F0020FC7D0FFF7ADFE401B0228F5D9CE
:102370000320D2E00025D3E70B4A136843F48073AF
:102380001360FFF79FFE0646074B1B6813F4807F20
:10239000CBD1FFF797FE801B6428F5D90320BCE062
:1023A0000010024000004242007000405F4A136A81
:1023B00043F001031362E36833B3FFF783FE06467D
:1023C0005A4B1B6A13F0020F2FD1FFF77BFE801BC5
:1023D00041F288339842F3D903209EE0052B09D0BF
:1023E000524B1A6A22F001021A621A6A22F004029F
:1023F0001A62E0E74D4B1A6A42F004021A621A6A46
:1024000042F001021A62D6E7FFF75CFE0646474B30
:102410001B6A13F0020F08D0FFF754FE801B41F235
:1024200088339842F3D9032077E0E5B9E369002BBC
:1024300072D03E4A526802F00C02082A56D0022B93
:1024400017D03B4B00221A66FFF73CFE0446374B81
:102450001B6813F0007F47D0FFF734FE001B0228F3
:10246000F5D9032059E0314AD36923F08053D36171
:10247000DCE72F4B00221A66FFF724FE05462B4BA4
:102480001B6813F0007F06D0FFF71CFE401B0228DC
:10249000F5D9032041E0236AB3F5803F1AD02349E0
:1024A0004B6823F47413226A606A024313434B603F
:1024B0001F4B01221A66FFF705FE04461B4B1B68E3
:1024C00013F0007F0ED1FFF7FDFD001B0228F5D9A8
:1024D000032022E0154A536823F40033A1680B431C
:1024E0005360DCE7002018E0002016E0012B16D036
:1024F0000E4B5B6803F48031226A914211D103F4E0
:102500007013626A93420ED1002006E001207047EA
:10251000012002E0012000E0002002B070BD012097
:10252000FBE70120F9E70120F7E700BF00100240B8
:10253000000042420F4B5B6803F00C02082A01D0F6
:102540000D487047C3F383420C49885C13F4803F05
:102550000BD0084B5B68C3F34043094AD35C064A7F
:1025600002FB00F0B0FBF3F07047064B03FB00F0FA
:10257000704700BF0010024000127A00E0780008A7
:10258000F078000800093D00002800F0A08070B538
:102590000D460446524B1B6803F007038B420BD2D7
:1025A0004F4A136823F007030B431360136803F0CB
:1025B00007038B4240F08D80236813F0020F17D081
:1025C00013F0040F04D0474A536843F4E0635360A8
:1025D000236813F0080F04D0424A536843F4605351
:1025E0005360404A536823F0F003A1680B435360E3
:1025F000236813F0010F31D06368012B20D0022B28
:1026000025D0384A126812F0020F64D035494A6862
:1026100022F0030213434B60FFF754FD0646314B93
:102620005B6803F00C036268B3EB820F16D0FFF710
:1026300049FD801B41F288339842F0D9032045E0E0
:10264000284A126812F4003FE0D101203EE0254AFA
:10265000126812F0007FD9D1012037E0204B1B68AF
:1026600003F00703AB420AD91D4A136823F007039E
:102670002B431360136803F00703AB422DD123688B
:1026800013F0040F06D0174A536823F4E063E1689F
:102690000B435360236813F0080F07D0114A5368A7
:1026A00023F46053216943EAC1035360FFF742FFFB
:1026B0000C4B5B68C3F303130B4AD35CD8400B4B42
:1026C00018600B4B1868FFF749F8002070BD012017
:1026D00070470120FAE70120F8E70120F6E700BF84
:1026E0000020024000100240087900080800002085
:1026F00004000020014B1868704700BF080000204C
:1027000008B5FFF7F7FF044B5B68C3F30223034AE6
:10271000D35CD84008BD00BF001002401879000803
:1027200008B5FFF7E7FF044B5B68C3F3C223034A16
:10273000D35CD84008BD00BF0010024018790008E3
:102740000F2303600B4B5A6802F0030242605A6881
:1027500002F0F00282605A6802F4E062C2605B68D4
:10276000DB0803F4E0630361034B1B6803F007031A
:102770000B607047001002400020024070B582B02C
:102780000446036813F0010F36D03F4BDB6913F0AA
:10279000805F49D13C4BDA6942F08052DA61DB69F3
:1027A00003F080530193019B0125384B1B6813F400
:1027B000807F3BD0344B1B6A13F4407313D06268A4
:1027C00002F440729A420ED02F4A136A23F44070EA
:1027D0002F490126C1F840640026C1F84064106208
:1027E00013F0010F36D1284A136A23F4407361684D
:1027F0000B431362002D3ED1236813F0020F06D065
:10280000214A536823F44043A1680B435360236873
:1028100013F0100F34D01C4A536823F48003E1688E
:102820000B43536000202CE00025BEE7174A1368D5
:1028300043F480731360FFF745FC0646134B1B6897
:1028400013F4807FB6D1FFF73DFC801B6428F5D9D7
:10285000032016E0FFF736FC06460B4B1B6A13F00D
:10286000020FC0D1FFF72EFC801B41F28833984243
:10287000F3D9032005E0D36923F08053D361BBE78C
:10288000002002B070BD00BF001002400070004088
:102890000000424208B502284ED0102803D001287B
:1028A00028D0002008BD2B4B5A68186810F08070A3
:1028B000F8D0C2F383432849C85C12F4803F15D096
:1028C000244B5B68C3F34043244AD25C244BB3FBE4
:1028D000F2F303FB00F01F4B5B6813F4800FE1D1B0
:1028E0004000204BA3FB00304008DBE71E4B03FBFE
:1028F00000F0F0E7174B1B6A40F202321A40B2F5C3
:10290000817F24D003F44073B3F5007F04D0B3F586
:10291000407F09D00020C5E70E4A526A12F0020F2C
:10292000F5D049F64040BDE70A4B186810F4003076
:10293000B8D04FF22440B5E7FFF7F2FE054B5B68D5
:10294000C3F3813301335B00B0FBF3F0AAE74FF42C
:102950000040A7E700100240F4780008047900085E
:1029600000127A00ABAAAAAA00093D0070B582B095
:102970000024A446A6E0804DAA4210D007D97F4D7E
:10298000AA420CD005F58035AA4208D013E0A5F57F
:102990008015AA4203D005F57025AA4207D18A689E
:1029A000002A58D0012A51D04361082403E0A5F53C
:1029B0008015AA42F3D0BEF1FF0F4ED80646BEF1F5
:1029C000FF0F4CD84FEA8C0233680F25954023EA5D
:1029D000050304FA02F2134333604B6813F0805F7F
:1029E0006ED0674B9A6942F001029A619B6903F0CD
:1029F00001030193019B4FEA9C02951C614B53F824
:102A000025600CF003039D000F23AB4026EA03066C
:102A10005D4B984229D003F58063984200F08E8088
:102A200003F58063984200F08B8003F58063984241
:102A300019D004231AE0CC68BDE7CC680434BAE7A7
:102A4000CC680834B7E7CC680C34B4E703610824D9
:102A5000B1E70024AFE70424ADE7061DAFE7ACF112
:102A600008029200B0E7032300E00023AB403343A9
:102A70000232444D45F822304B6813F4801F61D078
:102A8000424A936843EA0E0393604B6813F4001FB5
:102A90005ED03E4AD36843EA0E03D3604B6813F41A
:102AA000003F5BD0394A536843EA0E0353604B68DA
:102AB00013F4803F58D0354A136843EA0E0313607D
:102AC0000CF1010C0A6832FA0CF353D0012303FA1B
:102AD0000CF302EA030E33EA0202F1D14A68122A29
:102AE0003FF649AF122A3FF666AF01A555F822F02E
:102AF0009F290008372A0008412A0008532A0008A5
:102B0000B7290008B7290008B7290008B729000825
:102B1000B7290008B7290008B7290008B729000815
:102B2000B7290008B7290008B7290008B729000805
:102B3000B72900083B2A0008472A0008012395E727
:102B4000022393E7114A936823EA0E0393609CE7FC
:102B50000E4AD36823EA0E03D3609FE70B4A5368FB
:102B600023EA0E035360A2E7084A136823EA0E0320
:102B70001360A5E702B070BD000022100000311004
:102B80000010024000000140000801400004014024
:102B90008368194201D001207047002070470AB1B4
:102BA00001617047090401617047C36801EA0302CB
:102BB00021EA030141EA02410161704770470000C8
:102BC00008B5054B5B69034200D108BD024B586153
:102BD000FFF7F4FFF9E700BF0004014030B401241F
:102BE000056CAC40C56B6C60046863604368102B77
:102BF00005D0036899600368DA6030BC70470368E9
:102C00009A600368D960F8E760B310B402460168BF
:102C1000154B0B441548A0FB03031B099B001364D1
:102C2000134BD363022382F82130086820F47F50CD
:102C300020F03000536894682343D4682343146918
:102C400023435469234394692343D46923430343AF
:102C50000B6000209063012382F8213082F820006D
:102C600010BC704701207047F8FFFDBFCDCCCCCC25
:102C70000000024038B5044690F82000012832D008
:102C8000012084F8200094F82100C0B2012804D06B
:102C9000002384F82030022038BD022084F821006F
:102CA0000020A0632568286820F0010028602046E5
:102CB000FFF794FFE36A5BB12268136843F00E03E9
:102CC00013602268136843F0010313600020E3E7F8
:102CD0002268136823F0040313602268136843F02A
:102CE0000A031360EDE70220D6E7000038B5C36B96
:102CF0001A6804682568016C04238B40134235D0A0
:102D000015F0040F32D0236813F0200F03D123688D
:102D100023F0040323600368434A934214D014321F
:102D2000934218D01432934217D01432934217D0E2
:102D30001432934217D01432934202D04FF0806283
:102D400003E04FF4800200E00422384B5A60C36A6B
:102D500003B1984738BD4022F7E74FF48062F4E7AB
:102D60004FF48042F1E74FF48022EEE702238B40DC
:102D700013423CD015F0020F39D0236813F0200F16
:102D800006D1236823F00A032360012380F8213051
:102D90000368254A934214D0143293421CD0143253
:102DA00093421BD0143293421BD0143293421BD057
:102DB0001432934202D04FF0007203E04FF400123D
:102DC00000E00222194B5A60002380F82030836A09
:102DD000002BBFD09847BDE72022F3E74FF40072E5
:102DE000F0E74FF40052EDE74FF40032EAE7082332
:102DF00003FA01F11142ADD015F0080FAAD02368F3
:102E000023F00E032360026CC16B012303FA02F26C
:102E10004A60836380F82130002380F82030036B00
:102E2000002B97D0984795E7080002400000024029
:102E3000074AD36823F4E0631B041B0C000200F470
:102E4000E060034343F0BF6343F40033D360704753
:102E500000ED00E000B5194BDB68C3F30223C3F1BA
:102E6000070CBCF1040F28BF4FF0040C03F1040E53
:102E7000BEF1060F18D9033B4FF0FF3E0EFA0CFCD3
:102E800021EA0C0199400EFA03F322EA03031943E5
:102E900000280BDB0901C9B200F1604000F5614078
:102EA00080F800135DF804FB0023E5E700F00F0055
:102EB0000901C9B2024B1954F4E700BF00ED00E06C
:102EC00014ED00E0002807DB00F01F024009012399
:102ED0009340024A42F82030704700BF00E100E012
:102EE000044B0022DA61044A136943F001031361C1
:102EF00001807047F804002000200240194BDB6875
:102F000013F0100305D0184AD36943F00203D361CC
:102F10001023144AD26812F0040F06D01249CA696D
:102F200042F00102CA6143F004030E4AD26912F072
:102F3000010F09D00C49CA6942F00402CA6109496B
:102F4000CA6922F00102CA6140F20112934202D022
:102F5000044AD3607047034AD36923F00103D36165
:102F6000704700BF00200240F80400200A4B1B6994
:102F700013F0800F0BD0084B084A5A6002F18832D8
:102F80005A601B6913F0800F03D1002070470020A6
:102F900070470120704700BF0020024023016745B1
:102FA000034A136943F0800313610020704700BF98
:102FB0000020024038B50446FFF784F80546164B5A
:102FC000DB6813F0010F0AD0B4F1FF3FF7D024B152
:102FD000FFF778F8401BA042F1D903201BE00E4B0D
:102FE000DB6813F0200F02D00B4B2022DA600A4B73
:102FF000DB6813F0100F0BD1074BDB6913F0010FE7
:1030000006D1054BDB6813F0040F01D1002002E06C
:10301000FFF774FF012038BD002002402DE9F8437E
:103020001E46244B1B7E012B41D004460F46904682
:10303000204B01221A764CF25030FFF7BBFF0346BB
:1030400078BB012C08D0022C03D04FF004091C4699
:1030500007E04FF00209FAE74FF00109F7E7013402
:10306000E4B24C451DD22101C1F12002A1F120039F
:1030700028FA01F106FA02F2114326FA03F3194382
:1030800089B207EB4400FFF72BFF4CF25030FFF7FB
:1030900091FF094B1D6925F001051D6103460028BC
:1030A000DDD0044A002111761846BDE8F8830223DA
:1030B000FAE700BFF804002000200240064B00227F
:1030C000DA61064B1A6942F002021A6158611A6904
:1030D00042F040021A617047F804002000200240CC
:1030E00003685A6912F4806F01D1002070476FF4B1
:1030F00080625A6100230363202280F83D2080F81B
:103100003E30026C42F00402026480F83C30012040
:1031100070472DE9F04106460C46174698463BE0BD
:10312000FEF7D0FF069BC01A404502D8B8F1000F49
:1031300032D1012D18D033689B6924EA03039BB276
:10314000B3FA83F35B099F4226D100233363202225
:1031500086F83D2086F83E30326C42F02002326420
:1031600086F83C30012027E033685B6924EA0303DA
:103170009BB2B3FA83F35B09E5E733685B6924EA42
:10318000030C1FFA8CFCBCFA8CFC4FEA5C1C6745F4
:1031900011D1B8F1FF3FC3D1C4F30745012DECD0E5
:1031A00033689B6924EA030C1FFA8CFCBCFA8CFC84
:1031B0004FEA5C1CEBE70020BDE8F0812DE9F84305
:1031C00005460E469046994653E01A6842F400724E
:1031D0001A602B686FF480625A6100232B632022EF
:1031E00085F83D2085F83E302A6C42F004022A64BE
:1031F00085F83C3001204AE0FEF764FFA0EB0900AF
:10320000404502D8B8F1000F33D1012F17D02B68F9
:103210009B6926EA03039BB2003B18BF012343B31B
:1032200000232B63202285F83D2085F83E302A6C50
:1032300042F020022A6485F83C30012027E02B6808
:103240005B6926EA03039BB2003B18BF0123E6E754
:103250002B689C6926EA0404A4B2003C18BF012430
:10326000A4B12B685A6912F4806FAED1B8F1FF3F58
:10327000C2D1C6F30747012FEAD12B685C6926EA61
:103280000404A4B2003C18BF0124E9E70020BDE813
:10329000F8830000F0B583B004460D4616461F467D
:1032A000C36A082B0DD0012B0BD013F5803F08D03B
:1032B000036B122B0AD10268136843F48073136006
:1032C00004E02268136843F4807313600097334668
:1032D00000224FF001112046FFF71BFF80B9236940
:1032E000B3F5804F16D1236805F0FE051D613B46FE
:1032F000324613492046FFF761FFF8B903B0F0BD2D
:1033000023681B6813F4807F02D04FF4007323649A
:103310000320F3E7EB11226803F0060343F0F00308
:1033200013613B46324607492046FFF747FF18B96D
:103330002368EDB21D61DAE70120DFE70120DDE758
:10334000020001000800010070B504460D46164653
:1033500023685B6913F0800F21D12046FFF7C0FE80
:10336000F8B9B5F1FF3FF3D0FEF7ACFE801BA842E1
:1033700001D8002DECD123685B6913F0800FE7D1F1
:1033800000232363202284F83D2084F83E30226C01
:1033900042F02002226484F83C30012000E000204A
:1033A00070BD0120FCE770B504460D461646236843
:1033B0005B6913F0040F21D12046FFF791FEF8B9A5
:1033C000B5F1FF3FF3D0FEF77DFE801BA84201D888
:1033D000002DECD123685B6913F0040FE7D10023C3
:1033E0002363202284F83D2084F83E30226C42F092
:1033F0002002226484F83C30012000E0002070BDEF
:103400000120FCE7002800F0CC8070B5044690F85D
:103410003D30002B77D0242384F83D302268136898
:1034200023F0010313602268136843F40043136020
:103430002268136823F400431360FFF761F96268A0
:103440005A4B9A4264D85A4B98428CBF00230123AE
:10345000002B40F0A8805749A1FB00318B0C256858
:103460006A6822F03F0242EA91426A6021680A6A71
:1034700022F03F0266684D4DAE424FD801331343F0
:103480000B622168CA6922F44F4222F0FF0266688B
:10349000464B9E424CD8431E7600B3FBF6F30133F5
:1034A00040F6FC70034278D0C3F30B031343CB61A7
:1034B00021680B6823F0C003E269206A02431343CA
:1034C0000B6021688B6823F4034323F0FF03226918
:1034D000E068024313438B602168CB6823F0FF034D
:1034E0006269A06902431343CB602268136843F00A
:1034F0000103136000202064202384F83D30206302
:1035000084F83E0070BD80F83C30FDF7D1FF82E7C3
:10351000294B98428CBF0023012399E74FF49675FD
:1035200005FB03F3254DA5FB03539B090133A6E7D8
:10353000A368BBB9451E06EB460CB5FBFCF501358F
:10354000C5F30B05B5FA85F56D0945BBC3B901385F
:1035500006EB4603B0FBF3F30133C3F30B0343F471
:103560000043A3E7451E06EB860C0CEB8C0CB5FB69
:10357000FCF50135C5F30B05B5FA85F56D09E4E7F2
:10358000013806EB860303EB8303B0FBF3F301334F
:10359000C3F30B0343F4404388E7042386E7012386
:1035A00084E7012070470120ACE700BFA08601003E
:1035B0007F841E0083DE1B43FF083D00D34D621055
:1035C0002DE9F04385B004460F46914698460C9E7F
:1035D000FEF778FD054694F83D00C0B2202804D0DF
:1035E0000227384605B0BDE8F08300951923012273
:1035F0004F492046FFF78DFD002840F0928094F857
:103600003C30012B00F08F80012384F83C3023688C
:103610001A6812F0010F03D11A6842F001021A6011
:103620002268136823F400631360212384F83D307B
:10363000102384F83E3000232364C4F82490A4F8B7
:103640002A80638D23853B4BE3622B463246394605
:103650002046FFF71FFE0746002866D1002303938C
:1036600023685A6903929B690393039B11E0236CBF
:10367000042B01D00127B4E72268136843F40073D8
:103680001360F7E72A4631462046FFF78CFE0028F4
:103690002ED1238D002B36D02A4631462046FFF707
:1036A00053FE0028E3D1626A236812781A61606AC7
:1036B000431C6362618D89B2013989B26185238DB2
:1036C000013B9BB223852268516911F0040FD9D0C8
:1036D000002BD7D043781361636A01336362638D33
:1036E0009BB2013B9BB26385238D013B2385C9E7D8
:1036F000236C042B01D0012773E72268136843F47D
:1037000000731360F7E72268136843F400731360D3
:10371000202384F83D30002384F83E3084F83C3088
:103720005FE702275DE702275BE7012759E700BF54
:10373000020010000000FFFF2DE9F04782B00546AF
:10374000884617461E46FEF7BDFC0A9B1B1A03EB74
:103750000609FEF7B7FC82462B4B1B68C3F3CB333D
:1037600009FB03F301932B689C6838EA04030CBF40
:103770004FF0010C4FF0000CBC4540D0B6F1FF3FBC
:10378000F1D0FEF79FFCA0EB0A0048450AD2B9F140
:10379000000F07D0019A02B14A46019B013B0193F9
:1037A0009146E0E72A68536823F0E00353606B68B2
:1037B000B3F5827F0BD0AB6AB3F5005F14D0012361
:1037C00085F85130002385F85030032018E0AB68AD
:1037D000B3F5004F02D0B3F5806FECD12A681368BF
:1037E00023F040031360E6E72A68136823F40053CC
:1037F00013602A68136843F400531360DFE7002066
:1038000002B0BDE8F08700BF0800002070B582B0AC
:1038100006460C46154600920B4601220221FFF790
:103820008BFF48B900952346002280213046FFF7E0
:1038300083FF38B902B070BD736D43F02003736528
:103840000320F7E7736D43F0200373650320F1E76E
:1038500010B582B004460B464168B1F5827F10D0A6
:103860006168B1F5827F03D1A168B1F5806F15D091
:103870000092002280212046FFF75EFFE0B902B0EF
:1038800010BD8168B1F5004F02D0B1F5806FE7D16E
:103890002068016821F040010160E1E70092002208
:1038A00001212046FFF748FF0028E8D0636D43F070
:1038B000200363650320E2E7636D43F02003636543
:1038C0000320DCE7002856D010B50446436A33B91C
:1038D0004368B3F5827F05D00023C36102E0002373
:1038E000036143610023A36294F85130002B3CD064
:1038F000022384F851302268136823F040031360D8
:10390000636803F48273A26802F404421343E2681A
:1039100002F400621343226902F002021343626957
:1039200002F001021343A26902F400721343E26938
:1039300002F038021343226A02F080021343A26AA3
:1039400002F40052216813430B60638B226803F07A
:10395000040353602268D36923F40063D361002019
:103960006065012384F8513010BD84F85030204642
:10397000FDF7FCFDBCE7012070472DE9F04383B063
:103980000446894690461D46FEF79CFB94F851601C
:10399000F6B2012E40F0CC800746B9F1000F00F0DE
:1039A000C880B8F1000F00F0C48094F85030012BAB
:1039B00000F0C380012384F85030032384F8513091
:1039C00000236365C4F83090A4F83480A4F83680EE
:1039D000A363A387E38763642364A368B3F5004FFD
:1039E0001ED023681A6812F0400F03D11A6842F003
:1039F00040021A60E368B3F5006F1CD0636813B12E
:103A0000B8F1010F5FD1226B236812781A73236B10
:103A100001332363E38E9BB2013B9BB2E38652E00A
:103A20002268136823F0400313602268136843F48C
:103A300080431360D5E7636813B1B8F1010F15D166
:103A4000226B23681288DA60236B02332363E38ED0
:103A50009BB2013B9BB2E38608E0FEF733FBC01B41
:103A6000A84202D3B5F1FF3F15D1A5B1E38E9BB2B9
:103A7000002B42D023689A6812F0020FEDD0226B1F
:103A80001288DA60236B02332363E38E9BB2013B1F
:103A90009BB2E386EAE7012384F85130002384F8DF
:103AA0005030032645E0226B12781A73236B0133E2
:103AB0002363B4F836C01FFA8CFC0CF1FF3C1FFAEC
:103AC0008CFCA4F836C0E38E9BB2B3B123689A682D
:103AD00012F0020FE7D1FEF7F5FAC01BA84202D39D
:103AE000B5F1FF3F01D1002DEDD1012384F8513014
:103AF000002384F8503003261BE03A46294620462E
:103B0000FFF784FE08B120236365A36833B90193EE
:103B10002368DA6801929B680193019B012384F872
:103B20005130002384F85030636D13B9002600E053
:103B30000226304603B0BDE8F0830226F9E72DE9FE
:103B4000F04383B00446884691461F460A9DFEF71F
:103B5000B9FA064694F85130DBB26268012B0AD0FC
:103B6000B2F5827F40F00581A268002A40F005810D
:103B7000042B40F00481B8F1000F00F00281B9F18C
:103B8000000F00F00081002F00F0FF8094F850300B
:103B9000012B00F0FC80012384F8503094F8513060
:103BA000DBB2042B02D0052384F851300023636577
:103BB000C4F83890E787A787C4F83080E786A786DF
:103BC0002364636423681A6812F0400F03D11A68F3
:103BD00042F040021A60E368B3F5006F11D06368E9
:103BE0000BB1012F0BD1226B236812781A73236B50
:103BF00001332363E38E9BB2013B9BB2E386012733
:103C000071E063680BB1012F0BD1226B236812881E
:103C1000DA60236B02332363E38E9BB2013B9BB2DA
:103C2000E38601271BE023689A6812F0010F0ED08B
:103C3000E28F92B25AB1DA68A36B1A80A36B023397
:103C4000A363E38F9BB2013B9BB2E3870127FEF79F
:103C500039FA801BA84202D3B5F1FF3F1ED1E38E93
:103C60009BB21BB9E38F9BB2002B62D023689A688A
:103C700012F0020FD7D0E28E92B2002AD3D0002FDA
:103C8000D1D0226B1288DA60236B02332363E38E78
:103C90009BB2013B9BB2E3860027C4E7012384F873
:103CA0005130002384F85030032063E023689A6881
:103CB00012F0010F0ED0E28F92B25AB1DA68A36B04
:103CC0001A70A36B0133A363E38F9BB2013B9BB2DA
:103CD000E3870127FEF7F6F9831BAB4202D3B5F168
:103CE000FF3F1ED1EDB1E38E9BB213B9E38F9BB2C0
:103CF000FBB123689A6812F0020FD7D0E28E92B21D
:103D0000002AD3D0002FD1D0226B12781A73236BE4
:103D100001332363E38E9BB2013B9BB2E386002712
:103D2000C4E7012384F85130002384F85030032085
:103D300020E0324629462046FFF768FD90B9A36887
:103D400033B901932368DA6801929B680193019B60
:103D5000012384F85130002384F85030636D4BB157
:103D6000012007E020236365002384F85030012000
:103D700000E0022003B0BDE8F0830220FAE7022051
:103D8000F8E70120F6E70120F4E70120F2E702203E
:103D9000F0E72DE9F04383B090F85160F6B2012EC0
:103DA00040F0B4800446894690461D464368B3F50A
:103DB000827F01D1836893B3FEF784F90746B9F196
:103DC000000F00F0A480B8F1000F00F0A08094F87C
:103DD0005030012B00F09F80012384F850300423E1
:103DE00084F8513000236365C4F83890A4F83C800F
:103DF000A4F83E802363A386E38623646364A368F8
:103E0000B3F5004F15D023681A6812F0400F03D1A4
:103E10001A6842F040021A60E368F3B143E00423F9
:103E200080F85130009513460A46FFF788FE064693
:103E30006DE02268136823F0400313602268136862
:103E400023F480431360DEE7FEF73CF9C01BA84271
:103E500002D3B5F1FF3F15D1A5B1E38F9BB2002B83
:103E600042D023689A6812F0010FEDD0A26B1B7B41
:103E70001370A36B0133A363E38F9BB2013B9BB22F
:103E8000E387EAE7012384F85130002384F85030B7
:103E900003263CE0FEF716F9C01BA84202D3B5F199
:103EA000FF3F19D1C5B1E38F9BB2EBB123689A688C
:103EB00012F0010FEED0DA68A36B1A80A36B023305
:103EC000A363B4F83EC01FFA8CFC0CF1FF3C1FFA50
:103ED0008CFCA4F83EC0E6E7012384F851300023AF
:103EE00084F85030032612E03A4629462046FFF770
:103EF000AFFC08B120236365012384F8513000230F
:103F000084F85030636D13B9002600E00226304675
:103F100003B0BDE8F0830226F9E7704700F108031B
:103F200043604FF0FF328260C3600361002303608F
:103F3000704700230361704743684B609A688A604A
:103F4000516099600861036801330360704730B4C1
:103F50000D68B5F1FF3F11D000F108031C465B6806
:103F60001A68AA42FAD963684B6099608C606160F4
:103F7000086103680133036030BC70470469F2E7ED
:103F80000369416882688A60416851605A68824268
:103F900006D0002202611A68013A1A601868704758
:103FA00082685A60F5E70000084B1B681B6823B95C
:103FB000074B4FF0FF321A607047044B1B68DB68F9
:103FC000DB685A68024B1A60704700BF1C0500206E
:103FD000F00500202DE9F04707469846089DDDF8DA
:103FE00024900A9C266B02F18042013A06EB82067D
:103FF00026F0070600293AD08E464FF0000CBCF19F
:104000000F0F0BD81EF80C2004EB0C0383F83420A0
:104010001EF80C3013B10CF1010CF0E7002384F80A
:104020004330062D00D90625E56265644FF0000A8D
:10403000C4F848A0201DFFF77CFF04F11800FFF72B
:1040400078FF2461C5F10705A5616462C4F84CA03E
:1040500084F850A042463946304600F0F9FC206012
:10406000B9F1000F01D0C9F80040BDE8F087002386
:1040700084F83430D5E7000038B5002407E004EBBD
:10408000840293000E481844FFF748FF0134062CC1
:10409000F5D90C4D2846FFF741FF0B4C2046FFF7A2
:1040A0003DFF0A48FFF73AFF0948FFF737FF094885
:1040B000FFF734FF084B1D60084B1C6038BD00BF84
:1040C00024050020C4050020D8050020FC050020A0
:1040D00028060020140600201C05002020050020D2
:1040E00010B5044600F0DEFC214A1368013313606A
:1040F000204B1B685BB1204B1B686BB91D4B1B68C9
:10410000DA6AE36A9A4207D81A4B1C6004E0194B3A
:104110001C601368012B28D0184A13680133136000
:10412000E06A01238340164A11680B43136000EBD9
:104130008000211D134B03EB8000FFF7FDFE00F014
:10414000D3FC0D4B1B687BB10A4B1B68DA6AE36A30
:104150009A4209D24FF0E0234FF08052C3F8042D69
:10416000BFF34F8FBFF36F8F10BDFFF785FFD3E70E
:10417000B00500201805002010060020BC05002016
:10418000C00500202405002010B5044690F85130E9
:1041900063B1012B11D0022B0ED04FF0500383F3EB
:1041A0001188BFF36F8FBFF34F8FFEE7006B00F0F6
:1041B000E1FB204600F0DEFB10BD00F0DBFBFBE77F
:1041C0000F4B1B68D3B110B500F06CFC0D4BDB68D6
:1041D000DC68201DFFF7D4FE0B4A1368013B136017
:1041E000074A1368013B136000F07EFC2046FFF78E
:1041F000CBFF034B1B68002BE6D110BD704700BFFF
:10420000B405002028060020B005002008B5FFF7FF
:10421000D7FF074B1B68012BF9D94FF0E0234FF074
:104220008052C3F8042DBFF34F8FBFF36F8FEEE7BB
:104230002405002070B504460D461D4B1E681D4B1D
:1042400018680430FFF79CFE50B91A4B1B68DA6AF5
:10425000012303FA02F218490B6823EA02030B60F8
:10426000B4F1FF3F0DD03444124B1B685C60A64292
:1042700010D9124B18680F4B19680431FFF767FE0D
:1042800070BD002DEFD00B4B196804310C48FFF7BF
:1042900053FEF5E70B4B1868064B19680431FFF71E
:1042A00056FE094B1B68A342EAD9074B1C60E7E79F
:1042B0003C06002018050020C00500202005002035
:1042C000140600201C050020F005002030B587B042
:1042D0000B9C7CB10C9DB5B154250495049D542DC7
:1042E0001AD04FF0500383F31188BFF36F8FBFF3E1
:1042F0004F8FFEE74FF0500383F31188BFF36F8FAA
:10430000BFF34F8FFEE74FF0500383F31188BFF3E5
:104310006F8FBFF34F8FFEE7049D0C9D2C6302242B
:1043200085F8514000240394029505AC01940A9C41
:104330000094FFF74FFE0C98FFF7D2FE059807B0E8
:1043400030BD2DE9F04385B00746884614461E4629
:10435000900000F091FA00B38146542000F08CFAEE
:104360000546B0B1C0F83090E5B1002385F8513072
:10437000039302950D9B01930C9B009333462246B9
:1043800041463846FFF726FE2846FFF7A9FE0120E2
:1043900005E0484600F0EEFAE6E74FF0FF3005B0E2
:1043A000BDE8F0834FF0FF30F9E7000010B588B0AA
:1043B00000240594069407AA06A905A8FCF734FF73
:1043C000059B0293069B019300942346079A0E498E
:1043D0000E48FFF77BFF0E4B186090B14FF0500373
:1043E00083F31188BFF36F8FBFF34F8F094B4FF0EB
:1043F000FF321A60084B01221A60084B1C6000F063
:10440000DBFB08B010BD00BF207900080D4200089A
:10441000EC050020F0050020100600203C060020DE
:10442000024A136801331360704700BFB8050020CB
:10443000F8B53A4B1B68002B69D1394B1D68013523
:104440001D60C5B9374B1B681B6843B14FF0500363
:1044500083F31188BFF36F8FBFF34F8FFEE7314AAD
:104460001168314B186810601960304A13680133C5
:104470001360FFF799FD2E4B1B68AB423DD9002717
:104480002C4B1B68DB6A03EB83039A002A4B9B5877
:10449000012B00D90127294B1B68002B3CD0012799
:1044A0003AE001271F4B1B681B6843B31D4B1B6879
:1044B000DB68DC6863689D4226D3261D3046FFF723
:1044C0005FFDA36A1BB104F11800FFF759FDE36A11
:1044D00001229A401A49086802430A6003EB8303E9
:1044E0009A00314614481044FFF726FDE26A114B4A
:1044F0001B68DB6A9A42D4D2D4E70027D2E70C4B80
:104500004FF0FF321A60BBE7094A1360B8E70D4A63
:1045100013680133136000273846F8BDB805002042
:104520003C0600201C05002020050020F40500208A
:10453000F00500201805002024050020400600207A
:10454000C0050020F805002038B5354B1B6843B97D
:104550004FF0500383F31188BFF36F8FBFF34F8F7A
:10456000FEE700F09FFA2E4B1A68013A1A601B68AA
:10457000002B4FD12B4B1B680BB900244BE00024C0
:10458000294B1B681BB3284BDB68DC6804F118005F
:10459000FFF7F6FC251D2846FFF7F2FCE06A012331
:1045A0008340224A11680B43136000EB80002946C8
:1045B0001F4B03EB8000FFF7BFFCE26A1D4B1B683B
:1045C000DB6A9A42DCD31C4B01221A60D8E70CB19B
:1045D000FFF7EAFC194B1C6884B9174B1C68D4B16F
:1045E0004FF0E0234FF08052C3F8042DBFF34F8FFC
:1045F000BFF36F8F01240EE0013C07D0FFF718FFD7
:104600000028F9D00C4B01221A60F5E70B4B002271
:104610001A60E2E7002400F067FA204638BD00BFC8
:10462000B8050020B0050020FC050020C0050020D2
:10463000240500201805002040060020F805002071
:1046400010B5A8B10446104B1B6843B14FF050039E
:1046500083F31188BFF36F8FBFF34F8FFEE7FFF730
:10466000DFFE00212046FFF7E5FDFFF76DFF48B9AB
:104670004FF0E0234FF08052C3F8042DBFF34F8F6B
:10468000BFF36F8F10BD00BFB8050020204B1B6823
:104690001BB1204B01221A6070471E4B00221A608A
:1046A0001D4B1B68B3FA83F3DBB2C3F11F0303EBAB
:1046B00083018A0019498A5842B94FF0500383F3A5
:1046C0001188BFF36F8FBFF34F8FFEE7134903EBE2
:1046D000830082000A4450684068506003EB830CFA
:1046E0004FEA8C0208321144884209D003EB83035D
:1046F0009A000A4B13445B68DA68094B1A607047EA
:10470000406862469100054A0A445060EEE700BFE7
:10471000B805002040060020C00500202405002028
:1047200018050020842801D003307047002070470E
:1047300008B5FFF73BFE002008BD2DE9F04387B028
:1047400004460F464569BDB18669AEB1D0F8048014
:10475000D0F80090B0F90800FFF7E4FF0296019549
:1047600000903B46226949464046FFF7AFFD059061
:10477000059807B0BDE8F08365682668D4F8108016
:10478000B4F90800FFF7CEFF05AB019300903B465C
:104790001FFA88F231462846FFF7D3FD0128E7D0FB
:1047A0000020E6E708B500B90120FFF749FF002027
:1047B00008BD0000124A12F0070F1ED0D11D21F0D3
:1047C0000701C1F5406313440A460E480260002108
:1047D00041601344083B23F007030B480360596012
:1047E0001960991A51601360084B1960084B1960E1
:1047F000084B4FF000421A6070474FF44063E4E703
:10480000480600205C1200204406002050120020C0
:104810004C12002048120020154B1A461B68834298
:10482000FBD3516802EB010C844509D0416800EBD1
:10483000010C634509D00360904218D010607047A6
:104840004068014451601046F0E710B4094C2468F8
:10485000A3420AD05B681944416013681B68036077
:10486000904200D0106010BC70470460F8E77047B9
:104870005C1200204406002070B50546FFF7D0FD0D
:10488000364B1B68A3B1364B1B681D424ED135B168
:10489000083515F0070F02D025F007050835002D63
:1048A00046D0304B1B68AB4251D32F4A146804E00A
:1048B000FFF780FFE7E722461C466368AB4202D25F
:1048C0002368002BF7D1254B1B68A34241D0166803
:1048D00008362368136063685B1B102B10D96019BE
:1048E00010F0070F08D04FF0500383F31188BFF387
:1048F0006F8FBFF34F8FFEE743606560FFF78CFF5C
:10490000626818490B689B1A0B60184909688B424A
:1049100001D216490B60124B1B68134363600023DE
:104920002360134A13680133136002E0002600E09D
:104930000026FFF709FE16F0070F0CD04FF05003CA
:1049400083F31188BFF36F8FBFF34F8FFEE700260D
:10495000EFE70026EDE7304670BD00BF44060020BB
:10496000481200204C1200205C120020501200203F
:1049700054120020002834D038B50446A0F10805B0
:1049800050F8043C174A1268134208D14FF0500304
:1049900083F31188BFF36F8FBFF34F8FFEE750F89B
:1049A000081C41B14FF0500383F31188BFF36F8FA0
:1049B000BFF34F8FFEE723EA020340F8043CFFF702
:1049C0002FFD54F8041C084A13680B441360284652
:1049D000FFF722FF054A136801331360FFF7B4FDA8
:1049E00038BD7047481200204C1200205812002099
:1049F00082B0002301930D4B1B68B3F1FF3F08D039
:104A00004FF0500383F31188BFF36F8FBFF34F8FC5
:104A1000FEE74FF0500383F31188BFF36F8FBFF3AE
:104A20004F8F019B002BFCD002B070470C00002080
:104A300006480068006880F3088862B661B6BFF374
:104A40004F8FBFF36F8F00DF00BF000008ED00E065
:104A50004FF0807340F8043C21F0010140F8081C3D
:104A6000034B40F80C3C40F8202C4038704700BF06
:104A7000F1490008000000000000000000000000F4
:104A8000074B19680868B0E8F00F80F30988BFF396
:104A90006F8F4FF0000080F311884EF00D0E7047BD
:104AA000180500204FF0500383F31188BFF36F8F78
:104AB000BFF34F8F0B4A136801331360012B00D0F3
:104AC00070474FF0E023D3F8043D13F0FF0FF7D009
:104AD0004FF0500383F31188BFF36F8FBFF34F8FF5
:104AE000FEE700BF0C000020094B1B6843B94FF0E4
:104AF000500383F31188BFF36F8FBFF34F8FFEE72F
:104B0000013B034A13600BB983F31188704700BF60
:104B10000C00002000000000000000000000000069
:104B2000EFF30980BFF36F8F0D4B1A6820E9F00F88
:104B300010602DE908404FF0500080F31188FFF716
:104B4000A5FD4FF0000080F31188BDE8084019680A
:104B50000868B0E8F00F80F30988BFF36F8F7047E3
:104B60001805002008B54FF0500383F31188BFF3F8
:104B70006F8FBFF34F8FFFF75BFC28B14FF0E0233F
:104B80004FF08052C3F8042D002383F3118808BD31
:104B90004FF0E022002313619361054B1B68054928
:104BA000A1FB03139B09013B53610723136170476A
:104BB00008000020D34D621010B582B02A4B1A783D
:104BC000D2B20192FF221A701B78DBB28DF803304B
:104BD0009DF8033003F05003244A1370244B07223E
:104BE0001A6009E0224A1368013B13609DF8033004
:104BF0005B00DBB28DF803309DF8033013F0800FBB
:104C0000F0D11B4B1B68032B08D04FF0500383F3EC
:104C10001188BFF36F8FBFF34F8FFEE71B02144A5B
:104C2000136003F4E0631360019BDBB20E4A137060
:104C30004FF0E023D3F8202D42F47002C3F8202D6A
:104C4000D3F8202D42F07042C3F8202DFFF7A0FFCB
:104C50000024084B1C60FFF7EBFEFFF717FDFFF782
:104C6000C7FE204602B010BD00E400E06412002040
:104C7000681200200C00002010B503460C4A0D49B4
:104C80000D48006840B10C4800680344521A934232
:104C900006D8094A136010BD0748084C0460F2E7C3
:104CA00002F018F90C2303604FF0FF30F3E700BF68
:104CB00000500020000800006C120020D8170020CF
:104CC00000B583B002460B464FF0FF3100917821CA
:104CD0000248FEF775FC03B05DF804FBE00300201A
:104CE00008B5034B587002211846FFF7E9FF08BDCD
:104CF000F416002008B54FF480620021014802F04C
:104D000031F908BD7012002038B5104B40221A70DE
:104D1000002418E0A4F15000C0B2FFF7E1FF00202A
:104D2000FFF7DEFF1020FFF7DBFF084D8022084968
:104D300001EBC411681C02F007F981212846FFF736
:104D4000BFFF0134E4B2072CE4D938BD701600204F
:104D50007012002008B5AE20FFF7C2FF2020FFF739
:104D6000BFFF1020FFF7BCFFB020FFF7B9FFC8203E
:104D7000FFF7B6FF0020FFF7B3FF1020FFF7B0FFEB
:104D80004020FFF7ADFF8120FFF7AAFFDF20FFF7EC
:104D9000A7FFA120FFF7A4FFA620FFF7A1FFA820EF
:104DA000FFF79EFF3F20FFF79BFFA420FFF798FF30
:104DB000D320FFF795FF0020FFF792FFD520FFF7E4
:104DC0008FFFF020FFF78CFFD920FFF789FF22200B
:104DD000FFF786FFDA20FFF783FF1220FFF780FF3F
:104DE000DB20FFF77DFF2020FFF77AFF8D20FFF704
:104DF00077FF1420FFF774FFFFF77CFFFFF784FFB6
:104E0000AF20FFF76DFF08BD10F0800F1CD13F29C8
:104E10001AD862B94FEAD10C01F0070101228A4089
:104E20000A4B03EBCC13195C1143195470474FEA3A
:104E3000D10C01F0070101228A40044B03EBCC1393
:104E4000195C21EA02011954704700BF701200205A
:104E500030B59DF8104007282AD811F0800F27D1CF
:104E60000CB1D243D2B29DF80CE00EF1010EFF243A
:104E700004FA0EFE4FFA8EFE4FFA82FC4EEA0C0246
:104E8000C3F1080344FA03F35CB242EA0403DBB261
:104E9000084D2B70084A02EBC010425C134043548B
:104EA0002CEA0E0222EA0402D2B22A7013434354BF
:104EB00030BD00BFF7160020701200202DE9F0432E
:104EC00083B0064690461C469DF82890CF0801F016
:104ED00007052B44082B1EDDAA40CDF804900723BC
:104EE00000932B46D2B201463846FFF7B1FFC5F119
:104EF000080248FA02F22C44E4B2CDF80490093CCE
:104F0000E4B200940023D2B23146781CFFF7A0FF30
:104F100003B0BDE8F083AA402C44E4B2CDF804907D
:104F2000013CE4B200942B46D2B201463846FFF76A
:104F30008FFFEDE72DE9F04182B006461546984611
:104F4000CF0801F00704A2400193072300932346F2
:104F5000D2B201463846FFF77BFF14B902B0BDE874
:104F6000F081C4F1080245FA02F2CDF80480013C58
:104F7000E4B200940023D2B23146781CFFF768FFF8
:104F8000ECE72DE9F04F85B08046894692461E46F3
:104F90009DF8383003939DF83CB0DF0803F0070319
:104FA0000293002512E006FB045209EBC40105EB55
:104FB00008005B461AF80220C9B2C0B2FFF7BAFF78
:104FC0000134E4B2BC42EED30135EDB2B54201D2B8
:104FD0000024F7E7029BBBB106FB07F70024039D03
:104FE00010E03A1925F00701494404EB0800CDF818
:104FF00000B0029B1AF80220C9B2C0B2FFF75EFFF0
:105000000134E4B2B442ECD305B0BDE8F08F000047
:105010002DE9F04F85B005460C461E469DF83870C8
:10502000904231D09046994241D0A2EB00090FFA4C
:1050300089F9A3EB010AB9F1000F49DD01230193BE
:10504000BAF1000F48DD012302932DB224B2B9F169
:10505000000FB8BFC9F100091FFA89F303930FFAD3
:1050600089F9BAF1000FB8BFCAF1000A1FFA8AFB2A
:105070000FFA8AFAD14549DC4FF000089946CDF87D
:105080000CB0DDF808B047E099420BD92E4B1970EF
:1050900034460E4606E03A4621462846FFF7B4FE5F
:1050A0000134E4B2A642F6D205B0BDE8F08F9042DA
:1050B0000BD9254B18701546804606E03A46214626
:1050C0002846FFF7A1FE0135EDB2A845F6D2EBE781
:1050D0004FF0FF330193B3E74FF0FF330293B4E790
:1050E00055442DB24545DFD03A46E1B2E8B2FFF76C
:1050F0008BFE5E44B3B236B2B9EB460FF0DC029AD7
:10510000144424B2039A9B1A1EB2E9E70026DDF884
:1051100004A0E7E75C4424B2B442C5D03A46E1B209
:10512000E8B2FFF771FEC8441FFA88F30FFA88F857
:10513000BAEB480FEEDC019A15442DB2039A9B1A84
:105140000FFA83F8E6E700BFF61600202DE9F041DC
:1051500082B007460E461C469DF820800244D5B218
:10516000CDF800800B462A46FFF752FF3444E4B2E4
:10517000CDF8008023462A4621463846FFF748FFEF
:10518000CDF8008023463A4631463846FFF740FFC7
:10519000CDF8008023462A4631462846FFF738FFDF
:1051A00002B0BDE8F0812DE9F04383B005468846A2
:1051B00017461E469DF8289000240CE004EB0801D9
:1051C000C9B2EA19CDF800900B46D2B22846FFF7D3
:1051D0001FFF0134E4B2B442F0D303B0BDE8F08362
:1051E0002DE9F04F87B081468B461C460FFA82FAB4
:1051F0005200C2F1030303930023019314E0019BC7
:10520000A3EB0A03039A02EB83030A331BB2039353
:105210000AF1FF3A0FFA8AFA0BEB0A0148442246D8
:10522000C9B2C0B2FFF7F0FD019B53455BDC5FFAEA
:105230008AF6A9EB0603D8B29DF80450ABEB05073C
:10524000FFB2224639460290FFF7DEFD06EB090366
:10525000DAB2944622463946CDF810C06046FFF7D0
:10526000D3FDA9EB05085FFA88F806EB0B03DAB269
:105270001146224605914046FFF7C6FD22463946B3
:105280000298FFF7C1FDABEB0606F6B222463146A7
:105290004046FFF7B9FD05EB0B07FFB22246394642
:1052A0000498FFF7B1FD4D44EDB222463146284641
:1052B000FFF7AAFD224605992846FFF7A5FD2246DD
:1052C00039460298FFF7A0FD019B013398B21BB24B
:1052D0000193039A002A92DA83009BB213440633A7
:1052E0001BB2039398E707B0BDE8F08F2DE9F04FAC
:1052F00087B081460F461E460FFA82FB5200C2F16C
:10530000030302934FF0000A4CE05FFA84F85FFA5F
:105310008AF5E9193246C9B24046FFF775FD791B97
:105320003246C9B24046FFF76FFD013424B2CDF8D2
:1053300004B009EB0B039C42E7DD1FFA8AF20492EA
:10534000039B9C1A24B211E05FFA84F85FFA8BF594
:10535000E9193246C9B24046FFF756FD791B32467D
:10536000C9B24046FFF750FD013424B20AEB0903ED
:105370009C42E9DD049B03F1010A1FFA8AF30FFA4C
:105380008AFA029A002A19DB019BAAEB0303029A0C
:1053900002EB83030A331BB20293059B03F1FF3B2D
:1053A0000FFA8BFBDA4510DC1FFA89F303931FFA1F
:1053B0008BF30593A9EB030424B2B8E79B009BB2DF
:1053C000134406331BB20293ECE707B0BDE8F08F3D
:1053D00000B583B001935378009313785268FFF7B8
:1053E000D0FD03B05DF804FB70B582B05D68203A73
:1053F0001C7804F1070C4FEAEC0C5B7803FB0CFC07
:105400009DF81860019600940CFB0252FFF7B9FD5D
:1054100002B070BD2DE9F04182B005460F4614463A
:105420001E469DF820800AE0CDF8008033463946BC
:105430002846FFF7D9FF70782844C5B20134227896
:10544000002AF1D102B0BDE8F081037890F9002084
:10545000002A0DDA03F0E002C02A0BD003F0F002BC
:10546000E02A09D003F0F803F02B07D000207047A2
:1054700001207047022070470320704704207047C6
:105480002DE9F04F87B00390049193461E469DF896
:105490004030059333780733DB1096F8019003FB17
:1054A00009F95FFA89F909F104095FFA89F94FF0FE
:1054B000000A15E0059B01933378009373782A1D49
:1054C0000499039C2046FFF75CFD73782344DBB20C
:1054D0000393C2441FFA8AFA012300E00023E3B1D8
:1054E0000BEB0A071BF80A30002B3ED03846FFF7BB
:1054F000ACFF8046002838D00024337AA342EDD98F
:10550000756809FB045542462946384601F00CFDF2
:105510000028CFD00134E4B2EFE7B8F1010F11D089
:10552000059B0093F36820220499039C2046FFF713
:105530005BFFF3685B782344DBB20393C2441FFA3A
:105540008AFACDE7059B0093F3681BF80A200499BB
:10555000039C2046FFF748FFF3685B782344DBB2E7
:105560000393C2441FFA8AFABAE707B0BDE8F08F86
:1055700000B587B08DF80F001023009301230DF1C3
:1055800017020DF10F010448FEF7D9FA9DF8170034
:1055900007B05DF804FB00BF34040020F8B50446F2
:1055A0000D4616460C4F00224FF480613846FDF739
:1055B000F6FA2046FFF7DCFF044610233246294660
:1055C0000648FEF7DAF901224FF480613846FDF70C
:1055D000E6FA2046F8BD00BF000801403404002070
:1055E00070B504460D460B4E00224FF480613046E4
:1055F000FDF7D5FA2046FFF7BBFF04462846FFF724
:10560000B7FF01224FF480613046FDF7C8FA20460B
:1056100070BD00BF0008014038B504460A4D0022A5
:105620004FF480612846FDF7BAFA2046FFF7A0FF45
:10563000FF20FFF79DFF044601224FF480612846BA
:10564000FDF7ADFA204638BD00080140F8B5044624
:105650000D4616460C4F00224FF480613846FDF788
:105660009EFA2046FFF784FF04461023324629465F
:105670000648FEF78EFB01224FF480613846FDF7A5
:105680008EFA2046F8BD00BF000801403404002017
:1056900010B5482000F064F9074C00221021204684
:1056A000FDF77DFA01224FF480612046FDF777FA7D
:1056B000024800F08DF910BD0008014017B7D1383D
:1056C00000B585B0104B93E8030002908DF80C10E4
:1056D000052202A93020FFF761FF0522694610204C
:1056E000FFF7B4FF0023042B08DC03F110026A4427
:1056F00012F8102CA52A05D10133F4E7012005B0DA
:105700005DF804FB0020FAE770A0000838B5184CDB
:105710002070184D002210212846FDF740FA05227E
:1057200021463020FFF73AFF052221462A20FFF7C5
:1057300035FF01212120FFF753FF01212220FFF730
:105740004FFF1A212420FFF74BFF28212520FFF7C8
:1057500047FF0F212620FFF743FF0E212020FFF7F0
:105760003FFF012210212846FDF719FA38BD00BF7E
:10577000100000200008014038B50446194D0022F1
:1057800010212846FDF70BFA08222146A020FFF73A
:1057900005FF012210212846FDF701FA02E0012051
:1057A000FFF700F84FF400710E48FDF7F1F90028FB
:1057B000F5D10720FFF730FF044601462720FFF709
:1057C0000FFF14F0100F04D114F0200F07D1FF20A9
:1057D00038BDFF21E120FFF703FF1020F8E720206C
:1057E000F6E700BF00080140F8B506460D4617462B
:1057F000002409E02A590023A1190220FDF70EFC1C
:105800000028F7D10434A4B2BC42F3D3F8BD0000A1
:105810002DE9F04389B020F01F0886B21FFA88F303
:10582000F61AB0F1006F07D389461746B6B2104496
:10583000204B984200D812B909B0BDE8F083FDF7BB
:1058400095FB012530E053F808204DF80320043380
:105850009BB21F2BF7D90024A3191F2B09DCBC42D4
:1058600007D2331919F804200DF803200134A4B22B
:10587000F2E74046FDF722FC04E04CF25030FDF721
:1058800099FB0546002DF8D10B4A136923F002035A
:105890001361202269464046FFF7A6FF08F1200861
:1058A000A14400263F1B01D00023D2E7FDF778FB7F
:1058B000C2E700BFFFFF00080020024030B5141807
:1058C000134B9C4222D810F0010F07D030F8013C56
:1058D0001B0A0B7001300124002303E00024FBE7C6
:1058E00002339BB2A2EB040C63450FDA33F800E0FD
:1058F00003EB040C01F80CE0551EAC45F0DA0CF19A
:10590000010C4FEA1E2E01F80CE0E9E730BD00BFA4
:10591000000001080E4B1B78C3B982B00C4B01226A
:105920001A700C4B5B680193019A0B4B1B689A42EF
:1059300003D20A4A136801331360064B5A68064BB8
:105940001A60034B00221A7002B07047704700BF04
:105950000C170020001000E004170020081700209A
:1059600008B5124AD2F8FC3043F08073C2F8FC301C
:105970000F4B002159601A6842F001021A600D4B6A
:1059800003FB00F00C4B18600C4BA3FB00239B099E
:105990000B4A13600B4BA3FB0030800C0A4B1860C2
:1059A0000A4B1960FFF7B6FF08BD00BF00ED00E02D
:1059B000001000E040420F00F8160020D34D6210A6
:1059C000FC16002083DE1B43001700200817002070
:1059D00070B505460A4B5E68094B5868801BFBF79B
:1059E000BBF80446074B1868FBF7B6F82946FBF7E7
:1059F0000BF901462046FBF7A5FA0028ECD170BD53
:105A0000001000E0F8160020F8B5064607683B785D
:105A100083750024012C18DC07EB44035888231DF0
:105A200006EB43035B88C01AFBF79AF84FF0665108
:105A3000FBF7EAF800F100401249FBF7E5F8FBF745
:105A4000A9FA3319D8750134E4E7002416E0A51C3F
:105A500007EB4503D888A31D06EB43035B88C01AF8
:105A6000FBF77EF84FF06851FBF7CEF80649FBF7DD
:105A7000CBF8FBF78FFA354468760134032CE6DD6A
:105A8000F8BD00BF00007F430000FE4210B5642057
:105A9000FCF71EFB72B6FFF75DF9FFF7F9FD094C45
:105AA0002046FCF771FA082207492046FCF724F942
:105AB000FFF706FE0028FBD00020FFF727FE62B6A6
:105AC00010BD00BF6C0300201017002038B52D4D0D
:105AD0004FF480512846FDF75BF8012814BF0020E1
